:0B0C4600120C01120C691209C180F8A9
:100429006D6F64653A202073746172743A202020DC
:1004390074696D653A20202073006D6F64653A20F8
:10044900002073746172743A20002074696D653AF2
:10045900200020730D0A0066696E6973686564215E
:1004690000616464696E672077617465722E2E2E4F
:10047900007761746572696E672E2E2E007761743C
:100489006572206572726F21006C6F7720776174D5
:100499006572210068696768207761746572210057
:1007D500020F003CC101C102C100020A081401094F
:1007E50000010C00011700020D00000215000002B7
:0607F500110000010800E4
:100928007BFF7A047929E4FDFF1208A7A201E4FA03
:1009380033FB753101E4FD7F0512028EA202E4FA51
:1009480033FB753101E4FD7F0D12028E753103AB67
:0A09580010AA0FE4FD7F1502028EC5
:10081E001209287BFF7A047943120BEEA201E4FE43
:10082E0033FF7D0112066D7BFF7A04794A120BEEBF
:10083E00A202E4FE33FF7D0112066D7BFF7A04797E
:10084E0053120BEE7D03AF10AE0F12066D7BFF7AC7
:06085E0004795B020BEEC1
:0E0C010012000E120BC8D203120B7D020C5112
:100AF6007DE87C037F647E00120595300206C20203
:0B0B0600C2008004D202D20002081ED0
:100BB1007DE87C037F647E00120595300104C2014B
:070BC1008002D20102081EB0
:100B98007DE87C037F647E00120595740F2510F5AF
:090BA80010E4350FF50F02081EE0
:100962007DE87C037F647E00120595C3E510940F39
:10097200E50F9400500BE4F50FF510C202C200809F
:100982000C74F12510F51074FF350FF50F02081ED7
:100A3400E514B43103020AF6E514B43203020BB12F
:100A4400E514B43303020B98E514B43403120962B9
:010A5400227F
:030023000208646C
:10086400C0E0C0F0C083C082C0D075D000C000C05A
:1008740001C002C003C004C005C006C00730980808
:10088400C298859914120A34D007D006D005D00432
:10089400D003D002D001D000D0D0D082D083D0F009
:0308A400D0E0326F
:0C0C3900E4FF120C6DEF147003120AF6B9
:010C4500228C
:10073700E4FF120B2CEF24FE6013146013146013F4
:1007470014601F14602B24057037020BB1020B983D
:100757000209621200067BFF7A047960E4FDFF025A
:1007670008A7E50CB40102800DE50C7014750C01A7
:1007770022E50CB40204E4F50C22E50C7003750CB9
:01078700026F
:01078800224E
:1003A700C202E50E64C8450D70080512E512700219
:1003B7000511E51245117027120006751100751217
:1003C70001E50CB401087BFF7A04796A800BE50C20
:1003D700B4020C7BFF7A04797AE4FDFF1208A7AE1A
:1003E70011AF127C007D0A1204D4ED4C703112005B
:1003F700067BFF7A047986E4FDFF1208A7E50CB4B3
:1004070001087BFF7A047992800BE50CB4020D7B1F
:10041700FF7A04799D7D01E4FF1208A77F01227FFF
:020427000022B1
:100A5500E513B44503020AF6E513B44603020BB1E8
:100A6500E513B41503020962E513B40903120B98E3
:010A7500225E
:03000B0002018E61
:10018E00C0E0C0F0C083C082C0D075D000C000C037
:0D019E0001C002C003C004C005C006C007B8
:1001AB00050EE50E7002050D758CEE758A00E50ED9
:1001BB0020E00AE50C7003120C39120737E50C70BE
:1001CB000C120C1D8F13E5136003120A55E50C700E
:1001DB001BE517B401167517007511007512007524
:1001EB000800A200920212000612081EE50C601B0A
:1001FB00E508640160071203A78F08800B7DE87C7C
:10020B00037F047E00120595751701E50E64C84542
:10021B000D7004F50DF50E3002080516E51670028B
:10022B000515E51664C84515703EF515F516050957
:10023B00E509B40A03750900C3E5109402E50F94B0
:10024B0000501AC202750F00751000C20012081E72
:10025B007DE87C037FF47E01120595800BE510157C
:08026B00107002150F12081EAD
:10027300D007D006D005D004D003D002D001D000DF
:0B028300D0D0D082D083D0F0D0E03289
:040C69003002FD2236
:1009C100300223300220E509C3940550047F0180E1
:1009D10002E4FF120A0EA201E433240AF8E6FF7EC4
:0709E10000120AB680DA22C1
:0C07FB000A4A3F065B4F666D7D077F6F6A
:1006D300EDD39409505DE4F580EFB40800505490D5
:1006E30006E9F828287302072902072102071902DD
:1006F300071102070D020709020705020701C2A439
:10070300800EC2A48012C2A48016C2A4801AD2A4EE
:10071300C2A3C2A28016D2A4C2A3D2A2800ED2A424
:10072300D2A3C2A28006D2A4D2A3D2A2744A2DF825
:04073300E6F5802245
:03080700011E00CF
:030C6D007F0022E3
:100B11002093037F01222092037F02222091037FF1
:0B0B210003222090037F04227F0022AB
:02078900AE07B9
:10078B007D01E51E7015120B11EF7002FF22EE2595
:10079B00E025E02F24FCF51E7F0022EDC3940550CD
:1007AB0026EE25E025E02D24FCB51E18120B11EFCB
:1007BB00B505037F0022E4F51EEE25E025E02DC3F1
:0907CB009404FF220D80D47F008C
:0107D4002202
:100B2C0075907F7F01120789EF6001227590BF7F5E
:0A0B3C0002120789EF6001227F001A
:010B4600228C
:100B4700C2A7C2A6C2A58F807F017E00120A96D2D5
:0B0B5700A77F017E00120A96C2A722B1
:100B6200C2A7D2A6C2A58F807F017E00120A96D2AA
:0B0B7200A77F017E00120A96C2A72296
:10000E007F38120B477F0C120B477F06120B477F70
:04001E0001020B4789
:1008EA008F46EDD3940140037F0022ED701BE5464D
:1008FA00D3941F40037F0022E546C39410E5465077
:10090A00042480801224B0800EE546D3940F40035D
:0E091A007F0022E54624C0FF120B477F01221A
:0A08A7008F2D8D2E8B2F8A308931A2
:1008B100E4F5321208EAEF602FAB2FAA30A931120A
:1008C10004A9FF6023120B62053274012531F53151
:1008D100E43530F530C37410952DB532DCE52E705A
:0808E100077FC0120B4780D114
:0108E90022EC
:0E0C0F008B351208EAEF6005AF35120B62223A
:050006007F01020B4721
:0909920024FFFDE434FFFC7E00AB
:08099B008E468F478C488D4900
:1009A300E4FBFA7F01FEC3EB9549EA9548500EAC90
:0D09B30046AD471204C20BBB00010A80E9EB
:0109C0002214
:08028E008F2D8D2E8A2F8B307D
:10029600E4F532F533F5341208EAEF6077E531D349
:1002A60094054003753105C3E52F648094804008AA
:1002B600852F3285303380167B2DAD2EAF2D120C57
:1002C6000FC3E49530F533E4952FF532052D8531CE
:1002D60034E534D39400403CE5319534FFC37410C3
:1002E600952DB50709E52E702B7FC0120B47E53417
:1002F6007F0A120992AC32AD33CFCDCFCECCCE121F
:1003060004D47C007D0A1204D4ED2430FF120B6263
:04031600153480BD5D
:01031A0022C0
:080529008F3F8D408A418B4297
:10053100E4F544F5451208EAEF6058E543D3940425
:100541004003754304854344E544D394004044E5A6
:10055100439544FFC37410953FB50709E5407033D7
:100561007FC0120B47E5447F10120992AC41AD42A6
:10057100CFCDCFCECCCE1204D4EF540FF545C394DA
:100581000AE5455004243080022437FF120B62151E
:030591004480B5EE
:010594002244
:040C64007F02DFFE2E
:010C68002269
:100A7600E4FDFCC3ED9FEC9E5015E4FBFA0BBB00B6
:0F0A8600010AEB64784A70F50DBD00010C80E4A5
:010A9500223E
:100A9600E4FDFCC3ED9FEC9E5015E4FBFA0BBB0096
:0F0AA600010AEB646E4A70F50DBD00010C80E48F
:010AB500221E
:100AB600E4FDFCC3ED9FEC9E5015E4FBFA0BBB0076
:0F0AC600010AEB640B4A70F50DBD00010C80E4D2
:010AD50022FE
:100AD600E4FDFCC3ED9FEC9E5015E4FBFA0BBB0056
:0F0AE600010AEB640C4A70F50DBD00010C80E4B1
:010AF50022DE
:100BC8005389F0758901758CEEE4F58AD2AFD2A904
:030BD800D28C229A
:100BDB005389F0758901758CFC758A66D2AFD2A9E1
:030BEB00D28C2287
:100B7D00300304D2ACD2AF75985053890F438920FE
:0B0B8D00758BFD758DFDC2ABD28E2272
:080C5C008F993099FDC2992225
:100BEE001204A9FF600C120C5C740129F9E43AFAA4
:030BFE0080EE2264
:0809E8008E308F318C328D330B
:1009F000E4FBFA7F01FEC3EB9533EA9532500EAC6F
:0D0A000030AD311204C20BBB00010A80E9C9
:010A0D0022C6
:04066D00AB07AA0627
:10067100E4F52DF52EEDD3940540027D05C3EA6422
:1006810080948040068A2D8B2E800E7F2D120C5C6B
:10069100C3E49BF52EE49AF52D8D2FE52FD394001D
:1006A100402FE52F24FFFDE434FFFC7F0A7E00127A
:1006B10009E8AC2DAD2ECFCDCFCECCCE1204D47C5B
:1006C100007D0A1204D4ED2430FF120C5C152F803A
:0106D100CA5E
:0106D2002205
:0D080A00085509080C040602030101540002
:100A0E005390F074552554F8E64290EF7004055457
:100A1E0080021554E554B40804E4F55422E554B4A8
:050A2E00FF03755407F1
:010A330022A0
:080595008E2D8F2E8C2F8D306E
:10059D00E530452F605DD3E5309488E52F941350F9
:1005AD0052E52E452D604CE4F531F532AE2DAF2ED2
:1005BD007C037DE81204C2AC2FAD301204D4C3E528
:1005CD00329FE5319E502AB2A5AC2FAD307E137F00
:1005DD00881204D4120AB6B2A5AC2FAD307E137FAB
:1005ED00881204D4120AB60532E53270BF05318087
:0305FD00BBC2A5D9
:0106000022D7
:080601008E188F198C1A8D1B55
:10060900E51B451A605DD3E51B9488E51A941350E0
:1006190052E5194518604CE4F51CF51DAE18AF19E3
:100629007C037DE81204C2AC1AAD1B1204D4C3E5E5
:100639001D9FE51C9E502AB2A5AC1AAD1B7E137FE7
:10064900881204D4120AD6B2A5AC1AAD1B7E137F48
:10065900881204D4120AD6051DE51D70BF051C8039
:03066900BBC2A56C
:01066C00226B
:06081700016200015D001A
:0B0C5100D288D2A8D2AFD2B2D2B82213
:0E0C1D00E562B40106E4F562AF60227F0022BA
:0E0C2B00E55DB40106E4F55DAF5E227F0022B8
:03000300020026D2
:10002600C0E0C0F0C083C082C0D075D000C000C0A0
:0D00360001C002C003C004C005C006C00721
:10004300753900753A00753B00753C0030B2030208
:100053000173753903753AE820B21ED3E53A94006B
:10006300E53994004013120C64E53A153A70021511
:1000730039E53A453970E18052753901753AF43002
:10008300B21ED3E53A9400E53994004013120C6490
:10009300E53A153A70021539E53A453970E1802B96
:1000A300753D00753E00753902753A5820B223D369
:1000B300E53A9400E53994004018120C64E53A15CA
:1000C3003A70021539E53A453970E1F55DF562029A
:1000D300017330B21A7F017E00120AB6053CE53C7B
:1000E3007002053BD39414E53B940040E5807374A0
:1000F3005E253DF8C000E6C313D000F6C3E53C948B
:1001030008E53B9400745E4009253DF8E64480F61B
:100113008007253DF8E6547FF6753B00753C0005E6
:100123003EE53EC3940850030200A9053DE53DC3E7
:10013300940450030200A67543027BAC7A00E4FDED
:10014300FF120529E55FF4B55E07E561F4656060BC
:1001530019753D00745E253DF87600053DE53DB417
:1001630004F2755D007562008006755D01756201BC
:10017300D007D006D005D004D003D002D001D000E0
:0B018300D0D0D082D083D0F0D0E0328A
:0300000002031BDD
:0C031B00787FE4F6D8FD75816202036271
:1004A900BB010689828A83E0225002E722BBFE0251
:0904B900E32289828A83E4932284
:1004C200EF8DF0A4A8F0CF8CF0A428CE8DF0A42E4E
:0204D200FE2208
:1004D400BC000BBE0029EF8DF084FFADF022E4CC0C
:1004E400F875F008EF2FFFEE33FEEC33FCEE9DECD5
:1004F400984005FCEE9DFE0FD5F0E9E4CEFD22ED1B
:10050400F8F5F0EE8420D21CFEADF075F008EF2F64
:10051400FFED33FD4007985006D5F0F222C398FD55
:050524000FD5F0EA22F2
:10032700020C46E493A3F8E493A34003F68001F29A
:1003370008DFF48029E493A3F85407240CC8C333D7
:10034700C4540F4420C8834004F456800146F6DFA6
:10035700E4800B01020408102040809007D5E47E5A
:10036700019360BCA3FF543F30E509541FFEE4939B
:10037700A360010ECF54C025E060A840B8E493A362
:10038700FAE493A3F8E493A3C8C582C8CAC583CA8D
:10039700F0A3C8C582C8CAC583CADFE9DEE780BE45
:01081D0000DA
:00000001FF
