:0B0EA900120E6E120ECC120C6080F8CE
:1006E30073706565643A58585858006D6F64653A7D
:1006F300202073746172743A20202074696D653A06
:1007030020202073006D6F64653A200020737461AC
:1007130072743A20002074696D653A200020730DCD
:100723000A00616464696E672077617465722E2EB6
:100733002E007761746572696E672E2E2E007761C5
:10074300746572206572726F21006C6F7720776118
:100753007465722100686967682077617465722126
:010763000095
:1009F200022D003CC101C102C100042601F403E83A
:100A0200012200012A00013F000323FF06E3022B1B
:0D0A12000000023D0000022F000001210045
:100BF7007BFF7A0679EEE4FDFF120B76A201E4FA99
:100C070033FB755001E4FD7F0512043DA202E4FAAF
:100C170033FB755001E4FD7F0D12043D755003ABA6
:0A0C27002EAA2DE4FD7F1502043D06
:100B3000120BF77BFF7A077908120E5BA201E4FE25
:100B400033FF7D011209287BFF7A07790F120E5BB4
:100B5000A202E4FE33FF7D011209287BFF7A0779A8
:100B600018120E5B7D03AF2EAE2D1209287BFF7A83
:060B7000077920020E5B74
:10000E00E4FFEFC3953C500974322FF8E4F60F80ED
:04001E00F1E4F53CD8
:0100220022BB
:100E6E00120E21120E35D203120DEC120EB4020028
:010E7E000E65
:10018100E53C6407705EE533B46D1EE534B46F1968
:10019100E535B46414E536B4650FE537B43D0AE5D9
:1001A10038B43005C20102029DE533646D6003027B
:1001B10002A0E534646F60030202A0E53564646067
:1001C100030202A0E536646560030202A0E537641C
:1001D1003D60030202A0E538643160030202A0D24F
:1001E1000102029DE53C6408705FE533647370268B
:1001F100E53464747020E535B4611BE536B47216DC
:10020100E537B47411E538B43D0CE539B43007C2B3
:1002110002C20002029DE533647360030202A0E59D
:10022100346474707AE53564617074E536647270B3
:100231006EE53764747068E538643D7062E5396471
:1002410031705CD202D2008053E53C64047050E509
:1002510033B46117E534B46412E535B4640D740F39
:10026100252EF52EE4352DF52D8031E533B4732F90
:10027100E534B4752AE535B46225C3E52E940FE55E
:100281002D9400500BE4F52DF52EC202C200800C16
:1002910074F1252EF52E74FF352DF52D120B30221C
:100C8C00E53264246007E53C7003F53222743225AA
:100C9C003CF8E6B43B051201818009053CE53CC3F8
:080CAC00940A400312000E221D
:03002300020AE9E5
:100AE900C0E0C0F0C083C082C0D075D000C000C0D3
:100AF90001C002C003C004C005C006C00730980C7D
:100B0900C2987432253CF8A699120C8CD007D006ED
:100B1900D005D004D003D002D001D000D0D0D082EB
:070B2900D083D0F0D0E032D0
:100E0700E4FF120556EF147010300206C202C2004A
:090E17008004D202D200120B305B
:010E200022AF
:1003A400E4FF120D9BEF24FE602714603C24FE60E2
:1003B400681460742405600302043C7DE87C037FB8
:1003C400647E00120850300104C2018049D20180C9
:1003D40045740F252EF52EE4352DF52D7DE87C038F
:1003E4007F647E00120850802D7DE87C037F647E4C
:1003F40000120850C3E52E940FE52D9400500BE431
:10040400F52DF52EC202C200800C74F1252EF52EB6
:1004140074FF352DF52D020B30E52AB40102800D51
:10042400E52A7014752A0122E52AB40204E4F52AA7
:0804340022E52A7003752A027B
:01043C00229D
:1005DF00C202E52C64C8452B70080530E530700267
:1005EF00052FE530452F7027120006752F00753047
:1005FF0001E52AB401087BFF7A077925800BE52AEC
:10060F00B4020C7BFF7A077935E4FDFF120B76AE4F
:10061F002FAF307C007D0A12078FED4C7031120026
:10062F00067BFF7A077941E4FDFF120B76E52AB4CA
:10063F0001087BFF7A07794D800BE52AB4020D7B09
:10064F00FF7A0779587D01E4FF120B767F01227F35
:02065F00002277
:10066100E531B4450F300206C202C2008070D202E9
:10067100D200806AE531B446167DE87C037F647E52
:1006810000120850300104C2018002D201804FE5FE
:1006910031B4152F7DE87C037F647E00120850C3BE
:1006A100E52E940FE52D9400500BE4F52DF52EC2A7
:1006B10002C200800C74F1252EF52E74FF352DF544
:1006C1002D801BE531B40919740F252EF52EE43563
:1006D1002DF52D7DE87C037F647E00120850120BFE
:0206E1003022C5
:03000B000202A14D
:1002A100C0E0C0F0C083C082C0D075D000C000C023
:0D02B10001C002C003C004C005C006C007A4
:1002BE00052CE52C7002052B758CEE758A00E52C4D
:1002CE0020E00DE52A7003120E072002031203A48C
:1002DE00E52A700C120E8D8F31E531600312066126
:1002EE00E52A701BE53FB40116753F00752F0075AA
:1002FE003000752100A2009202120006120B30E5AA
:10030E002A601BE521640160071205DF8F21800B37
:10031E007DE87C037F047E00120850753F01E52CBA
:10032E0064C8452B7004F52BF52C300208053EE50C
:10033E003E7002053DE53E64C8453D703EF53DF517
:10034E003E0522E522B40A03752200C3E52E94026F
:10035E00E52D9400501AC202752D00752E00C200B4
:10036E00120B307DE87C037FF47E01120850800B67
:0B037E00E52E152E7002152D120B301D
:10038900D007D006D005D004D003D002D001D000C8
:0B039900D0D0D082D083D0F0D0E03272
:040ECC003002FD22D1
:100C6000300228300225E522C3940550047F01801C
:100C700002E4FF120CDAA201E43325E0FF74262F10
:0C0C8000F8E6FE08E6FF120D2080D522E9
:0C0A1F000A083F065B4F666D7D077F6F85
:10098E00EDD39409505DE4F580EFB4080050549017
:10099E0009A4F82828730209E40209DC0209D4022A
:1009AE0009CC0209C80209C40209C00209BCC2A4CA
:1009BE00800EC2A48012C2A48016C2A4801AD2A431
:1009CE00C2A3C2A28016D2A4C2A3D2A2800ED2A467
:1009DE00D2A3C2A28006D2A4D2A3D2A274082DF8AA
:0409EE00E6F5802288
:090A2B00011D00011B00011C006B
:10055600E51B704E20B10F7F01FE120D2020B10663
:10056600751B017F002220B0107F017E00120D2036
:1005760020B006751B027F002220B2107F017E008C
:10058600120D2020B206751B037F002220B3107FB8
:10059600017E00120D2020B306751B047F00227F0A
:1005A6000022E51B24FE601314601914601F240347
:1005B600702430B121E4F51B7F012230B018E4F538
:1005C6001B7F022230B20FE4F51B7F032230B306F5
:0805D600E4F51B7F04227F0005
:0105DE0022FA
:100A4800E51C704E20B10F7F01FE120D2020B1066B
:100A5800751C017F012220B0107F017E00120D203D
:100A680020B006751C027F022220B2107F017E0092
:100A7800120D2020B206751C037F032220B3107FBD
:100A8800017E00120D2020B306751C047F04227F0E
:040A980000227F00B9
:010A9C002237
:100D80002093037F01222092037F02222091037F80
:0B0D900003222090037F04227F00223A
:020A9D00AE07A2
:100A9F007D01E51D7015120D80EF7002FF22EE250E
:100AAF00E025E02F24FCF51D7F0022EDC3940550B7
:100ABF0026EE25E025E02D24FCB51D18120D80EF44
:100ACF00B505037F0022E4F51DEE25E025E02DC3DB
:090ADF009404FF220D80D47F0075
:010AE80022EB
:100D9B0075907F7F01120A9DEF6001227590BF7FD6
:0A0DAB0002120A9DEF6001227F0092
:010DB500221B
:100DB600C2A7C2A6C2A58F807F017E00120D20D2D7
:0B0DC600A77F017E00120D20C2A722B3
:100DD100C2A7D2A6C2A58F807F017E00120D20D2AC
:0B0DE100A77F017E00120D20C2A72298
:100E21007F38120DB67F0C120DB67F06120DB67FFC
:040E310001020DB6F7
:100BB9008F55EDD3940140037F0022ED701BE5555D
:100BC900D3941F40037F0022E555C39410E5555087
:100BD900042480801224B0800EE555D3940F40037D
:0E0BE9007F0022E55524C0FF120DB67F0122C9
:0A0B76008F4C8D4D8B4E8A4F895035
:100B8000E4F551120BB9EF602FAB4EAA4FA95012EA
:100B90000764FF6023120DD1055174012550F550F3
:100BA000E4354FF54FC37410954CB551DCE54D70ED
:080BB000077FC0120DB680D1D1
:010BB800221A
:0E0E7F008B54120BB9EF6005AF54120DD12247
:050006007F01020DB6B0
:090C310024FFFDE434FFFC7E0009
:080C3A008E548F558C568D5726
:100C4200E4FBFA7F01FEC3EB9557EA9556500EACD2
:0D0C520054AD5512077D0BBB00010A80E96F
:010C5F002272
:08043D008F4C8D4D8A4E8B4F50
:10044500E4F551F552F553120BB9EF6077E550D34A
:1004550094054003755005C3E54E648094804008BB
:10046500854E51854F5280167B2DAD4DAF4C120EEA
:100475007FC3E4954FF552E4954EF551054C8550F3
:1004850053E553D39400403CE5509553FFC3741096
:10049500954CB50709E54D702B7FC0120DB6E55398
:1004A5007F0A120C31AC51AD52CFCDCFCECCCE128E
:1004B500078F7C007D0A12078FED2430FF120DD1C6
:0404C500155380BD8E
:0104C9002210
:0807E4008F5E8D5F8A608B615E
:1007EC00E4F563F564120BB9EF6058E562D3940439
:1007FC004003756204856263E563D394004044E56D
:10080C00629563FFC37410955EB50709E55F70339D
:10081C007FC0120DB6E5637F10120C31AC60AD6178
:10082C00CFCDCFCECCCE12078FEF540FF564C3943F
:10083C000AE5645004243080022437FF120DD115D0
:03084C006380B511
:01084F002286
:040EC7007F02DFFEC9
:010ECB002204
:100D0000E4FDFCC3ED9FEC9E5015E4FBFA0BBB0029
:0F0D1000010AEB64784A70F50DBD00010C80E418
:010D1F0022B1
:100D2000E4FDFCC3ED9FEC9E5015E4FBFA0BBB0009
:0F0D3000010AEB646E4A70F50DBD00010C80E402
:010D3F002291
:100D4000E4FDFCC3ED9FEC9E5015E4FBFA0BBB00E9
:0F0D5000010AEB640B4A70F50DBD00010C80E445
:010D5F002271
:100D6000E4FDFCC3ED9FEC9E5015E4FBFA0BBB00C9
:0F0D7000010AEB640C4A70F50DBD00010C80E424
:010D7F002251
:100E35005389F0758901758CEEE4F58AD2AFD2A994
:030E4500D28C222A
:100E48005389F0758901758CFC758A66D2AFD2A971
:030E5800D28C2217
:100DEC00300304D2ACD2AF75985053890F4389208D
:0B0DFC00758BFD758DFDC2ABD28E2201
:080EBF008F993099FDC29922C0
:100E5B00120764FF600C120EBF740129F9E43AFA11
:030E6B0080EE22F4
:080CB4008E4F8F508C518D52C0
:100CBC00E4FBFA7F01FEC3EB9552EA9551500EAC62
:0D0CCC004FAD5012077D0BBB00010A80E9FF
:010CD90022F8
:04092800AB07AA0669
:10092C00E4F54CF54DEDD3940540027D05C3EA6426
:10093C0080948040068A4C8B4D800E7F2D120EBF0A
:10094C00C3E49BF54DE49AF54C8D4EE54ED39400E3
:10095C00402FE54E24FFFDE434FFFC7F0A7E00129D
:10096C000CB4AC4CAD4DCFCDCFCECCCE12078F7CD2
:10097C00007D0A12078FED2430FF120EBF154E803A
:01098C00CAA0
:01098D002247
:0D0A3400081309080C04060203010112005A
:100CDA005390F074132512F8E64290EF700405124F
:100CEA0080021512E512B40804E4F51222E512B4E2
:050CFA00FF0375120765
:010CFF0022D2
:080850008E4C8F4D8C4E8D4F34
:10085800E54F454E605DD3E54F9488E54E941350BF
:1008680052E54D454C604CE4F550F551AE4CAF4D5A
:100878007C037DE812077DAC4EAD4F12078FC3E5B0
:10088800519FE5509E502AB2A5AC4EAD4F7E137FC6
:100898008812078F120D40B2A5AC4EAD4F7E137F64
:1008A8008812078F120D400551E55170BF05508021
:0308B800BBC2A51B
:0108BB00221A
:0808BC008E658F668C678D6864
:1008C400E5684567605DD3E5689488E567941350EF
:1008D40052E5664565604CE4F569F56AAE65AF6658
:1008E4007C037DE812077DAC67AD6812078FC3E512
:1008F4006A9FE5699E502AB2A5AC67AD687E137FF6
:100904008812078F120D60B2A5AC67AD687E137FA5
:100914008812078F120D60056AE56A70BF05698049
:03092400BBC2A5AE
:0109270022AD
:060A4100017000016B00D2
:0B0EB400D288D2A8D2AFD2B2D2B822AE
:0E0E8D00E570B40106E4F570AF6E227F00221E
:0E0E9B00E56BB40106E4F56BAF6C227F00221C
:03000300020026D2
:10002600C0E0C0F0C083C082C0D075D000C000C0A0
:0D00360001C002C003C004C005C006C00721
:10004300755800755900755A00755B0030B203028C
:1000530001667558037559E820B21ED3E55994001B
:10006300E55894004013120EC7E55915597002154F
:1000730058E559455870E180527558017559F43067
:10008300B21ED3E5599400E55894004013120EC7ED
:10009300E559155970021558E559455870E1802BFB
:1000A300755C00755D0075580275595820B223D3ED
:1000B300E5599400E55894004018120EC7E5591508
:1000C3005970021558E559455870E1F56BF5700202
:1000D300016630B21A7F017E00120D40055BE55BBD
:1000E3007002055AD39414E55A940040E58066746F
:1000F3006C255CF8C000E6C313D000F6C3E55B943F
:1001030008E55A9400746C4009255CF8E64480F6CF
:100113008007255CF8E6547FF6755A00755B000589
:100123005DE55DC3940850030200A9055CE55CC36B
:10013300940450030200A6E56DF4B56C07E56FF473
:10014300656E6019755C00746C255CF87600055C5F
:10015300E55CB404F2756B007570008006756B0185
:03016300757001B3
:10016600D007D006D005D004D003D002D001D000ED
:0B017600D0D0D082D083D0F0D0E03297
:030000000204CA2D
:0C04CA00787FE4F6D8FD75817002051102
:10076400BB010689828A83E0225002E722BBFE0293
:09077400E32289828A83E49322C6
:10077D00EF8DF0A4A8F0CF8CF0A428CE8DF0A42E90
:02078D00FE224A
:10078F00BC000BBE0029EF8DF084FFADF022E4CC4E
:10079F00F875F008EF2FFFEE33FEEC33FCEE9DEC17
:1007AF00984005FCEE9DFE0FD5F0E9E4CEFD22ED5D
:1007BF00F8F5F0EE8420D21CFEADF075F008EF2FA7
:1007CF00FFED33FD4007985006D5F0F222C398FD98
:0507DF000FD5F0EA2235
:1004D600020EA9E493A3F8E493A34003F68001F285
:1004E60008DFF48029E493A3F85407240CC8C33327
:1004F600C4540F4420C8834004F456800146F6DFF6
:10050600E4800B01020408102040809009F2E47E8A
:10051600019360BCA3FF543F30E509541FFEE493EA
:10052600A360010ECF54C025E060A840B8E493A3B1
:10053600FAE493A3F8E493A3C8C582C8CAC583CADC
:10054600F0A3C8C582C8CAC583CADFE9DEE780BE94
:010A470000AE
:00000001FF
